:020000040800F2
:100000000000022001330008210600082306000832
:100010002506000827060008290600080000000041
:100020000000000000000000000000002B06000897
:100030002D060008000000002F0600083106000809
:100040005133000851330008513300085133000880
:100050005133000851330008513300085133000870
:100060005133000851330008513300085133000860
:100070005133000851330008513300085133000850
:100080005133000851330008513300085133000840
:100090005133000851330008513300085133000830
:1000A0005133000851330008513300085133000820
:1000B0005133000851330008513300085133000810
:1000C0005133000851330008513300085133000800
:1000D00051330008513300085133000851330008F0
:1000E00051330008513300085133000851330008E0
:1000F00051330008513300085133000851330008D0
:1001000051330008513300085133000851330008BF
:1001100051330008513300085133000851330008AF
:10012000513300085133000851330008513300089F
:1001300051330008000000000000000051330008A7
:10014000513300085133000851330008513300087F
:10015000513300085133000851330008513300086F
:10016000513300085133000851330008513300085F
:1001700051330008513300085133000800000000DB
:10018000513300085133000851330008513300083F
:10019000513300085133000851330008513300082F
:1001A000513300085133000851330008513300081F
:1001B000513300085133000851330008513300080F
:1001C0005133000851330008000000000000000017
:1001D0000000000000000000513300080000000093
:1001E000000000000000000000000000000000000F
:1001F00000000000000000005133000851330008E7
:10020000513300085133000800000000513300084A
:1002100051330008513300085133000851330008AE
:10022000513300085133000851330008000000002A
:10023000513300085133000800000000513300081A
:10024000513300085133000851330008513300087E
:10025000513300085133000851330008513300086E
:10026000513300085133000851330008513300085E
:1002700051330008513300085133000800000000DA
:1002800051330008513300080000000051330008CA
:100290000000000051330008513300080000000046
:0C02A0000000000051330008513300083A
:1002AC0053B94AB9002908BF00281CBF4FF0FF31D1
:1002BC004FF0FF3000F00CB8ADF1080C6DE904CE36
:1002CC0003F06EF8DDF804E0DDE9022304B07047BA
:1002DC00704700BF10B5054C237833B9044B13B1EC
:1002EC000448AFF300800123237010BD10000020E0
:1002FC00000000004C36000808B5034B1BB1034945
:10030C000348AFF3008008BD00000000140000207B
:10031C004C3600082DE9F0438FB0002409940A9460
:10032C000B940C940D94654BD3F8402142F00402CD
:10033C00C3F84021D3F8402102F004020192019A43
:10034C00D3F8402142F02002C3F84021D3F84021D9
:10035C0002F020020292029AD3F8402142F080026D
:10036C00C3F84021D3F8402102F080020392039A93
:10037C00D3F8402142F00202C3F84021D3F84021C7
:10038C0002F002020492049AD3F8402142F00802CF
:10039C00C3F84021D3F8402102F008020592059AD7
:1003AC00D3F8402142F04002C3F84021D3F8402159
:1003BC0002F040020692069AD3F8402142F0010264
:1003CC00C3F84021D3F8402102F001020792079AAA
:1003DC00D3F8402142F01002C3F84021D3F8403149
:1003EC0003F010030893089BDFF8E09022464FF4CB
:1003FC008061484602F052FE314F224644F2010120
:10040C00384602F04BFEDFF8C880224602214046F7
:10041C0002F044FE4FF4005309930A940B9409A97B
:10042C00284802F02BFD4FF48066099601250A95A9
:10043C000B940C9409A9484602F020FD44F20103E8
:10044C0009930A950B940C9409A9384602F016FDF1
:10045C00802309934FF488130A930B9409A91A4823
:10046C0002F00CFD4FF4007309930A940B94A7F55A
:10047C00806709A9384602F001FD099602260A9602
:10048C000B940C940A230D9309A9384602F0F6FC40
:10049C004FF4C05309930A960B940C9409A938464F
:1004AC0002F0ECFC09960A950B940C9409A94046B1
:1004BC0002F0E4FC0FB0BDE8F08300BF004402582A
:1004CC000004025800080258001802580014025880
:1004DC000010025872B6FEE708B51548154B0360BC
:1004EC004FF4E133436000238360C36003610C224B
:1004FC0042618361C36103624362836200F0FFFD6A
:10050C0070B900210A4800F072FE58B90021084861
:10051C0000F092FE40B9064800F04AFE30B908BD22
:10052C00FFF7D8FFFFF7D6FFFFF7D4FFFFF7D2FF97
:10053C002C0000200048004000B59DB04C2200214A
:10054C0009A802F000FF2022002101A802F0FBFE06
:10055C00244B4FF0FF32C3F8B020042002F0AEFD64
:10056C0000230093204B9A6942F440429A619B69A4
:10057C0003F440430093009B1B4B9B6913F4005FF7
:10058C00FAD0212309934FF4A0230A9301220F924E
:10059C000223129313931492182215921693042289
:1005AC00179218930C23199300231A931B9309A8E1
:1005BC0000F068FE90B93F230193032302930023BC
:1005CC00039304930593069307930893022101A8C0
:1005DC0001F084FA20B91DB05DF804FBFFF77AFF37
:1005EC00FFF778FF004402580048025808B502F0A3
:1005FC00D7FDFFF7A1FFFFF78DFEFFF76DFF4FF45F
:10060C008041034802F050FD642002F009FEF6E739
:10061C0000040258FEE7FEE7FEE7FEE7FEE7704740
:10062C007047704708B502F0E9FD08BD82B0074B72
:10063C00D3F8542142F00202C3F85421D3F85431B8
:10064C0003F002030193019B02B07047004402586F
:10065C0010B5B8B0044600213391349135913691E0
:10066C003791C02202A802F06EFE22681B4B9A4200
:10067C0001D038B010BD02220023CDE9022302A81C
:10068C0001F0C4FC38BB164BD3F8482142F480224D
:10069C00C3F84821D3F8482102F480220092009A32
:1006AC00D3F8402142F00802C3F84021D3F840317E
:1006BC0003F008030193019B4FF44073339302231F
:1006CC0034930023359336930723379333A9054886
:1006DC0002F0D4FBCDE7FFF7FDFED4E70048004065
:1006EC0000440258000C0258002804DB0901C9B26E
:1006FC00044B1954704700F00F000901C9B2024BAA
:10070C001954704700E400E014ED00E000B500F06F
:10071C000700C0F1070CBCF1040F28BF4FF0040C0C
:10072C00031D062B0FD9C31E4FF0FF3E0EFA0CF023
:10073C0021EA000199400EFA03FE22EA0E0241EA78
:10074C0002005DF804FB0023EEE700000649CB68CD
:10075C0023F4E0631B041B0C000200F4E060034371
:10076C00024A1A43CA60704700ED00E00000FA0527
:10077C0010B50446054BD868C0F30220FFF7C6FF3E
:10078C0001462046FFF7B0FF10BD00BF00ED00E0B2
:10079C000138B0F1807F0BD24FF0E0235861054A4D
:1007AC00F02182F823100020986107221A6170470B
:1007BC000120704700ED00E0026852E8003F23F48E
:1007CC00907342E800310029F6D1026802F1080367
:1007DC0053E8001F0D4B0B40083242E80031002952
:1007EC00F3D1C36E012B06D02023C0F88C3000232C
:1007FC00C36643677047026852E8003F23F010035A
:10080C0042E800310029F6D1EEE700BFFEFFFFEF12
:10081C0070B586B00446836802691343426913437A
:10082C00C269134301680868904A02401A430A607F
:10083C002268536823F44053E1680B435360A16969
:10084C0022688B4B9A4201D0236A19439068894BDA
:10085C0003400B4393602268D36A23F00F03616A51
:10086C000B43D3622368844A934229D0834A934230
:10087C0000F09480824A934200F0AA80814A93420D
:10088C0000F0C080804A934200F0D6807F4A9342A9
:10089C0000F008817E4A934200F02D817D4A9342FC
:1008AC0000F040817C4A934200F053817B4A934292
:1008BC0000F078816E4A934200F09D81802233E0F3
:1008CC00774A526D02F03802282A65D8DFE812F018
:1008DC002900640064006400640064006400640027
:1008EC00AB01640064006400640064006400640094
:1008FC002B00640064006400640064006400640005
:10090C005E006400640064006400640064006400C1
:10091C0060006400640064006400640064006400AF
:10092C006200012200E0082251498B4200F09481C0
:10093C00E069B0F5004F00F00A82202A00F26182D3
:10094C00202A00F2AE82DFE812F063027D02AC02D4
:10095C00AC028002AC02AC02AC028502AC02AC026E
:10096C00AC02AC02AC02AC02AC028A02AC02AC022D
:10097C00AC02AC02AC02AC02AC02AC02AC02AC02FB
:10098C00AC02AC02AC02AC02AC0296021022CBE779
:10099C002022C9E74022C7E78022C5E7404A526DB2
:1009AC0002F00702052A11D8DFE812F006003F0119
:1009BC0008000A000C000E000022B5E70822B3E77D
:1009CC001022B1E72022AFE74022ADE78022ABE74F
:1009DC00334A526D02F00702052A11D8DFE812F0F3
:1009EC000600270108000A000C000E0000229BE7FD
:1009FC00082299E7102297E7202295E7402293E7F7
:100A0C00802291E7264A526D02F00702052A11D87E
:100A1C00DFE812F006000F0108000A000C000E00BF
:100A2C00002281E708227FE710227DE720227BE766
:100A3C00402279E7802277E7194A526D02F00702CB
:100A4C00052A11D8DFE812F00600F70008000A00AA
:100A5C000C000E00002267E7082265E7102263E70E
:100A6C00202261E740225FE780225DE7F369FFCF38
:100A7C00000C0058FFF4FF1100100140004400402E
:100A8C0000480040004C0040005000400014014061
:100A9C0000780040007C004000180140001C014020
:100AAC0000440258694A526D02F03802282A20D8B4
:100ABC00DFE802F0151F1F1F1F1F1F1FC31F1F1F63
:100ACC001F1F1F1F171F1F1F1F1F1F1F191F1F1F38
:100ADC001F1F1F1F1B1F1F1F1F1F1F1F1D0001225A
:100AEC0022E7082220E710221EE720221CE74022E2
:100AFC001AE7802218E7554A526D02F00702052AC0
:100B0C000ED8DFE802F0039C0507090B00220BE767
:100B1C00082209E7102207E7202205E7402203E715
:100B2C00802201E7494A526D02F00702052A0ED8CD
:100B3C00DFE802F003870507090B0022F4E6082220
:100B4C00F2E61022F0E62022EEE64022ECE68022CD
:100B5C00EAE63E4A526D02F03802282A20D8DFE835
:100B6C0002F0151F1F1F1F1F1F1F721F1F1F1F1F8C
:100B7C001F1F171F1F1F1F1F1F1F191F1F1F1F1F87
:100B8C001F1F1B1F1F1F1F1F1F1F1D000122CBE636
:100B9C000822C9E61022C7E62022C5E64022C3E699
:100BAC008022C1E6294A526D02F03802282A20D848
:100BBC00DFE802F0151F1F1F1F1F1F1F4E1F1F1FD7
:100BCC001F1F1F1F171F1F1F1F1F1F1F191F1F1F37
:100BDC001F1F1F1F1B1F1F1F1F1F1F1F1D00012259
:100BEC00A2E60822A0E610229EE620229CE64022E5
:100BFC009AE6802298E602F50E32926D02F0070218
:100C0C00052A0ED8DFE802F003260507090B02229D
:100C1C008AE6082288E6102286E6202284E6402214
:100C2C0082E6802280E604227EE604227CE6042210
:100C3C007AE6042278E6042276E6042274E604229C
:100C4C0072E6042270E604226EE600BF00440258ED
:100C5C00042269E6042267E6202A27D8022AC0F07B
:100C6C000E81023A1E2A00F20C81DFE812F02600F7
:100C7C000A0156000A010A010A015B000A010A0175
:100C8C000A010A010A010A010A0160000A010A01AB
:100C9C000A010A010A010A010A010A010A010A01F0
:100CAC000A010A010A010A010A016C00402A02D158
:100CBC004FF4004006E00120F4E001F0CDFE0028E6
:100CCC0000F0E180626A7E4B33F81220B0FBF2F345
:100CDC00656805EB4501994200F2D780B3EB053FFF
:100CEC0000F2D580002633463146FFF7D9FA0902C7
:100CFC0041EA106100026B08C0182A46334641F1E4
:100D0C000001FFF7CDFAA0F540726E4B9A4200F24B
:100D1C00C0802368D8603046C4E003A801F0AEFE62
:100D2C000498CCE7684601F0A9FF0198C7E7664B29
:100D3C001B6813F0200F08D0634B1B68C3F3C1036F
:100D4C006248D840BEE76248BCE76048BAE7202A50
:100D5C0015D8202A00F29F80DFE802F015369D9D01
:100D6C00399D9D9D3E9D9D9D9D9D9D9D439D9D9DC4
:100D7C009D9D9D9D9D9D9D9D9D9D9D9D4F00402A52
:100D8C0006D001208EE001F015F8002800F08580D7
:100D9C00626A4B4B33F81230B0FBF3F062685308C5
:100DAC0003EB4003B3FBF2F3A3F110014FF6EF7228
:100DBC00914274D89AB222F00F02C3F34203134348
:100DCC002268D36000206DE001F006F8DDE703A88F
:100DDC0001F054FE0498D8E7684601F04FFF0198E3
:100DEC00D3E7394B1B6813F0200F08D0364B1B6828
:100DFC00C3F3C1033548D840CAE73548C8E7334880
:100E0C00C6E7402A02D14FF4004005E0012049E03A
:100E1C0000F0D0FF00284FD0626A294B33F8123013
:100E2C00B0FBF3F0636800EB5300B0FBF3F0A0F100
:100E3C0010024FF6EF739A4240D8236880B2D86004
:100E4C0000202FE000F0C8FFE4E703A801F016FE35
:100E5C000498DFE7684601F011FF0198DAE71A4BB6
:100E6C001B6813F0200F08D0174B1B68C3F3C1038A
:100E7C001648D840D0E71648CEE71448CCE70120F6
:100E8C0010E001200EE000200CE001200AE001201F
:100E9C0008E0012006E0012004E0002002E001202F
:100EAC0000E001200123A4F86A30A4F86830002384
:100EBC006367A36706B070BD0020F3E70120F1E77C
:100ECC0064360008FFFC0F00004402580090D00369
:100EDC0000093D00836A13F0010F06D002685368C5
:100EEC0023F40033C16A0B435360836A13F0020F7F
:100EFC0006D00268536823F48033016B0B435360B4
:100F0C00836A13F0040F06D00268536823F480231D
:100F1C00416B0B435360836A13F0080F06D00268D1
:100F2C00536823F40043816B0B435360836A13F0C3
:100F3C00100F06D00268936823F48053C16B0B43E7
:100F4C009360836A13F0200F06D00268936823F431
:100F5C000053016C0B439360836A13F0400F0AD06B
:100F6C000268536823F48013416C0B435360436C49
:100F7C00B3F5801F0BD0836A13F0800F06D0026884
:100F8C00536823F40023C16C0B4353607047026811
:100F9C00536823F4C003816C0B435360EBE72DE9DA
:100FAC00F84305460F4616469946DDF820802B6817
:100FBC00DC6937EA04040CBF01240024B44232D1AA
:100FCC00B8F1FF3FF3D002F025F9A0EB0900404542
:100FDC002CD8B8F1000F2BD02B681A6812F0040F24
:100FEC00E5D0DA6912F0080F11D1DA6912F4006F4A
:100FFC00DDD04FF400621A622846FFF7DDFB202398
:10100C00C5F89030002385F8843003200CE00824C8
:10101C001C622846FFF7D0FBC5F89040002385F8EA
:10102C008430012000E00020BDE8F8830320FBE7BA
:10103C000320F9E730B583B004460023C0F89030A4
:10104C0002F0E8F805462268126812F0080F10D179
:10105C0023681B6813F0040F28D12023C4F88830B0
:10106C00C4F88C300020E066206784F8840003B05C
:10107C0030BD6FF07E430093034600224FF4001105
:10108C002046FFF78CFF0028E2D0226852E8003F90
:10109C0023F0800342E800310029F6D12023C4F864
:1010AC008830002384F884300320E0E76FF07E431F
:1010BC0000932B4600224FF480012046FFF76FFF70
:1010CC000028CAD0226852E8003F23F4907342E80B
:1010DC0000310029F6D1226802F1080353E8003FE1
:1010EC0023F00103083242E800310029F3D1202318
:1010FC00C4F88C30002384F884300320B7E778B32D
:10110C0010B50446D0F888300BB32423C4F88830CB
:10111C002268136823F0010313602046FFF778FB65
:10112C00012813D0A36ABBB92268536823F49043F7
:10113C0053602268936823F02A0393602268136833
:10114C0043F0010313602046FFF774FF10BD80F8D5
:10115C008430FFF77DFAD8E72046FFF7BBFEE3E7C4
:10116C0001207047436E2BB90123A0F86A30A0F818
:10117C006830704730B403689A68C2F34262996869
:10118C00490F094D6B5C1B01084C615C93FBF1F33F
:10119C00A0F86A30AB5C1B01A25C93FBF2F3A0F8E5
:1011AC00683030BC704700BF843600087C360008BD
:1011BC0090F88430012B18D0012380F8843024233C
:1011CC00C0F8883003681A68196821F001011960A9
:1011DC0022F000520023436601680A602022C0F806
:1011EC00882080F88430184670470220704738B544
:1011FC0090F88430012B1DD00446012380F88430F4
:10120C002423C0F8883003681D681A6822F0010294
:10121C001A600268936823F0604319439160FFF7EA
:10122C00A1FF23681D602023C4F88830002084F8B7
:10123C00840038BD0220FCE738B590F88430012BCF
:10124C001DD00446012380F884302423C0F8883054
:10125C0003681D681A6822F001021A60026893681C
:10126C0023F0606319439160FFF77CFF23681D60D6
:10127C002023C4F88830002084F8840038BD022074
:10128C00FCE70000002800F0118338B50446036821
:10129C0013F0010F29D0A14A136903F03803926AA5
:1012AC00102B19D0182B13D06368B3F5803F43D0A3
:1012BC00002B58D1994B1A6822F480321A601A68A4
:1012CC0022F480121A601A6822F480221A6038E024
:1012DC0002F00302022AE7D1904B1B6813F4003F83
:1012EC0003D06368002B00F0E382236813F0020F35
:1012FC0000F0A280894A1369926A13F0380374D003
:10130C00182B6FD0E368002B00F0C38083490A6868
:10131C0022F0190213430B6001F07CFF05467F4B52
:10132C001B6813F0040F40F0AB8001F073FF401BFF
:10133C000228F4D90320C2E2784A136843F48033BC
:10134C0013606368002B3ED001F064FF0546734BBD
:10135C001B6813F4003FC8D101F05CFF401B6428EC
:10136C00F5D90320ABE2B3F5A02F10D0B3F5A81F2D
:10137C001BD06A4B1A6822F480321A601A6822F465
:10138C0080221A601A6822F480121A60D9E7634B23
:10139C001A6842F480221A601A6822F480121A60C9
:1013AC001A6842F480321A60CBE75C4B1A6842F43C
:1013BC0080221A601A6842F480121A601A6842F489
:1013CC0080321A60BDE701F025FF0546534B1B68C0
:1013DC0013F4003F89D001F01DFF401B6428F5D9A0
:1013EC0003206CE212F0030F8CD14C4B1B6813F0F2
:1013FC00040F03D0E368002B00F05C82474A1368AB
:10140C0023F01903E1680B43136001F003FF054659
:10141C00424B1B6813F0040F06D101F0FBFE401B7E
:10142C000228F5D903204AE23C4A536823F0FE43D4
:10143C00216943EA01635360236813F0100F51D004
:10144C00364A136903F03803926A082B39D0182BEB
:10145C0033D0E369002B6CD0304A136843F080031F
:10146C00136001F0D7FE05462C4B1B6813F4807FEC
:10147C0056D101F0CFFE401B0228F5D903201EE205
:10148C00264A536823F0FE43216943EA0163536003
:10149C00D2E7224A136823F00103136001F0BAFE6D
:1014AC0005461E4B1B6813F0040FC5D001F0B2FEAD
:1014BC00401B0228F5D9032001E202F00302012AA5
:1014CC00C7D1164B1B6813F4807F03D0E369802BC4
:1014DC0040F0F281114AD36823F07C53216A43EA2D
:1014EC000163D360236813F0080F4AD06369002BA3
:1014FC0033D00A4A536F43F00103536701F08AFE5D
:10150C000546064B5B6F13F0020F3AD101F082FED9
:10151C00401B0228F5D90320D1E100BF004402583A
:10152C008C4AD36823F07C53216A43EA0163D3606D
:10153C00D8E7884A136823F08003136001F06AFE31
:10154C000546844B1B6813F4807FCBD001F062FE00
:10155C00401B0228F5D90320B1E17E4A536F23F0DA
:10156C000103536701F056FE05467A4B5B6F13F08F
:10157C00020F06D001F04EFE401B0228F5D90320C5
:10158C009DE1236813F0200F29D0A3699BB1714A08
:10159C00136843F48053136001F03CFE05466D4B19
:1015AC001B6813F4005F1AD101F034FE401B0228B3
:1015BC00F5D9032083E1674A136823F48053136041
:1015CC0001F028FE0546634B1B6813F4005F06D040
:1015DC0001F020FE401B0228F5D903206FE123689F
:1015EC0013F0040F22D1636A002B00F06781594A73
:1015FC00126902F03802182A00F00E81022B00F05A
:10160C009480544A136823F08073136001F002FE37
:10161C000446504B1B6813F0007F00F0FB8001F078
:10162C00F9FD001B0228F4D9032048E14A4A13684B
:10163C0043F48073136001F0EDFD0546464B1B68C7
:10164C0013F4807F06D101F0E5FD401B6428F5D929
:10165C00032034E1A368012B0ED033BB3D4B1A6F32
:10166C0022F001021A671A6F22F080021A671A6FB1
:10167C0022F004021A6704E0364A136F43F00103A8
:10168C001367A368002B3ED001F0C4FD0546314B17
:10169C001B6F13F0020FA6D101F0BCFD401B41F2F1
:1016AC0088339842F3D9032009E1052B0FD0852B01
:1016BC001BD0284B1A6F22F001021A671A6F22F006
:1016CC0004021A671A6F22F080021A67D9E7214BBD
:1016DC001A6F42F004021A671A6F22F080021A671E
:1016EC001A6F42F001021A67CBE71A4B1A6F42F0DD
:1016FC0004021A671A6F42F080021A671A6F42F0DE
:10170C0001021A67BDE701F085FD0546114B1B6F01
:10171C0013F0020F3FF467AF01F07CFD401B41F268
:10172C0088339842F2D90320C9E00A4A136823F09F
:10173C008073136001F06EFD0546064B1B6813F0B9
:10174C00007F0BD001F066FD401B0228F5D9032069
:10175C00B5E000BF00440258004802585F4B996A3C
:10176C005F4A0A40A16AE06A41EA00110A439A62A0
:10177C00226B013AC2F30802616B0139490289B24A
:10178C000A43A16B0139090401F4FE010A43E16B20
:10179C000139090601F0FE410A431A63DA6A22F0A4
:1017AC000102DA625A6B6FF3CF02A16C42EAC102FA
:1017BC005A63DA6A22F00C02216C0A43DA62DA6AA2
:1017CC0022F00202616C0A43DA62DA6A42F4803275
:1017DC00DA62DA6A42F40032DA62DA6A42F48022BD
:1017EC00DA62DA6A42F00102DA621A6842F0807256
:1017FC001A6001F00FFD0446384B1B6813F0007F94
:10180C0006D101F007FD001B0228F5D9032056E094
:10181C00002054E0002052E030498A6A086B012B0A
:10182C004ED002F00303A16A8B424BD1C2F30512D6
:10183C00E36A9A4248D1C0F30802236B013B9A42F7
:10184C0044D1C0F34622636B013B9A4240D1C0F3B2
:10185C000642A36B013B9A423CD1C0F30660E36B9A
:10186C00013B984238D11D4B5B6BC3F3CC03A26C8C
:10187C009A4201D1002022E0184AD36A23F00103D6
:10188C00D36201F0C7FC054601F0C4FCA842FBD0B2
:10189C00124A536B6FF3CF03A16C43EAC10353633A
:1018AC00D36A43F00103D362002008E001207047A3
:1018BC00012004E0012002E0012000E0002038BDFE
:1018CC000120FCE70120FAE70120F8E70120F6E708
:1018DC000120F4E70120F2E70120F0E70044025870
:1018EC000CFCFFFF754B1B6903F03803102B00F049
:1018FC00DE80182B0FD0002B40F0DB806F4B1B6869
:10190C0013F0200F00F0D7806C4B1B68C3F3C1039E
:10191C006B48D840704710B4684B9A6A02F00302C7
:10192C009C6AC4F30510D96A01F001015B6BC3F327
:10193C00CC0301FB03F307EE903AF8EE677A14F44C
:10194C007C7F77D0012A4AD0022A76D0002A40F038
:10195C0091805A4B1B6813F0200F23D057490A680B
:10196C00C2F3C102564BD34007EE103AF8EE476A69
:10197C0007EE100AB8EE476A86EE867A0B6BC3F355
:10198C00080306EE903AF8EE666A9FED4E6A67EE33
:10199C00867A76EEA77AF7EE006A77EEA67A27EECD
:1019AC00277A38E007EE100AF8EE476A9FED466A90
:1019BC0086EE267A414B1B6BC3F3080306EE903A76
:1019CC00F8EE666A9FED3F6A67EE867A76EEA77A46
:1019DC00F7EE006A77EEA67A27EE277A1BE007EE81
:1019EC00100AF8EE476A9FED396A86EE267A334B79
:1019FC001B6BC3F3080306EE903AF8EE666A9FED94
:101A0C00316A67EE867A76EEA77AF7EE006A77EEA1
:101A1C00A67A27EE277A294B1B6BC3F34623013397
:101A2C0007EE903AF8EE677AC7EE276AFCEEE67A94
:101A3C0017EE900A5DF8044B704707EE100AF8EEAB
:101A4C00476A9FED236A86EE267A1C4B1B6BC3F309
:101A5C00080306EE903AF8EE666A9FED1A6A67EE96
:101A6C00867A76EEA77AF7EE006A77EEA67A27EEFC
:101A7C00277AD0E707EE100AF8EE476A9FED136A53
:101A8C0086EE267A0D4B1B6BC3F3080306EE903AD9
:101A9C00F8EE666A9FED0B6A67EE867A76EEA77AA9
:101AAC00F7EE006A77EEA67A27EE277AB3E70948B5
:101ABC007047094870470248704700BF00440258FD
:101ACC000090D003000000390024744C0024744AA8
:101ADC000024F44A00127A0000093D00002800F0AE
:101AEC00328170B50D4604469B4B1B6803F00F0307
:101AFC008B420BD2984A136823F00F030B431360ED
:101B0C00136803F00F038B4240F01F81236813F01E
:101B1C00040F0CD02269914B9B6903F070039A421D
:101B2C0005D98E498B6923F070031A438A612368A7
:101B3C0013F0080F0CD06269884BDB6903F070035B
:101B4C009A4205D98549CB6923F070031A43CA61BF
:101B5C00236813F0100F0CD0A269804BDB6903F4DF
:101B6C00E0639A4205D97D49CB6923F4E0631A43BB
:101B7C00CA61236813F0200F0CD0E269774B1B6A03
:101B8C0003F070039A4205D974490B6A23F0700371
:101B9C001A430A62236813F0020F0CD0E2686F4BF1
:101BAC009B6903F00F039A4205D96C498B6923F0AA
:101BBC000F031A438A61236813F0010F41D0674A5F
:101BCC00936923F47063A1680B4393616368022BE0
:101BDC000AD0032B27D0012B2CD0604A126812F0AC
:101BEC00040F06D10120ADE0126812F4003F00F0A2
:101BFC00AE805A490A6922F0070213430B6101F0C7
:101C0C0009FB0646554B1B6903F038036268B3EBBE
:101C1C00C20F16D001F0FEFA801B41F288339842B5
:101C2C00F0D903208EE04D4A126812F0007FE0D10B
:101C3C00012087E0494A126812F4807FD9D1012033
:101C4C0080E0236813F0020F0CD0E268434B9B69D1
:101C5C0003F00F039A4205D240498B6923F00F031E
:101C6C001A438A613C4B1B6803F00F03AB420AD941
:101C7C00394A136823F00F032B431360136803F0E6
:101C8C000F03AB4265D1236813F0040F0CD022690B
:101C9C00324B9B6903F070039A4205D22F498B6932
:101CAC0023F070031A438A61236813F0080F0CD0D9
:101CBC0062692A4BDB6903F070039A4205D227490B
:101CCC00CB6923F070031A43CA61236813F0100F19
:101CDC000CD0A269214BDB6903F4E0639A4205D274
:101CEC001E49CB6923F4E0631A43CA61236813F0DD
:101CFC00200F0CD0E269194B1B6A03F070039A4257
:101D0C0005D216490B6A23F070031A430A62FFF7D7
:101D1C00E9FD12498B69C3F30323114AD35C03F029
:101D2C001F03D8408B6903F00F03D35C03F01F0330
:101D3C0020FA03F30B4A13600B4B18600B4B18681B
:101D4C0001F006FA70BD012070470120FAE701206E
:101D5C00F8E70120F6E700BF0020005200440258CB
:101D6C008C360008080000200C0000200400002025
:101D7C0008B5FFF7B7FD0B4A9369C3F303230A4970
:101D8C00CB5C03F01F0320FA03F3926902F00F02FD
:101D9C00885C00F01F0023FA00F0044A1060044A2B
:101DAC00136008BD004402588C360008080000205F
:101DBC000C00002008B5FFF7DBFF054BDB69C3F314
:101DCC000213044AD35C03F01F03D84008BD00BFC4
:101DDC00004402588C36000808B5FFF7C9FF054BC4
:101DEC00DB69C3F30223044AD35C03F01F03D8401E
:101DFC0008BD00BF004402588C360008404B9B6A5B
:101E0C0003F00303032B79D070B505460E463C4A0C
:101E1C00136823F08063136001F0FCF90446384B1F
:101E2C001B6813F0006F06D001F0F4F9031B022BB2
:101E3C00F5D9032070BD324B9A6A22F47C322968A2
:101E4C0042EA01329A626A68013AC2F30802A9684E
:101E5C000139490289B20A43E9680139090401F4DC
:101E6C00FE010A4329690139090601F0FE410A43C2
:101E7C009A63DA6A22F0C00269690A43DA62DA6AA2
:101E8C0022F02002A9690A43DA62DA6A22F010020F
:101E9C00DA62DA6B6FF3CF02E96942EAC102DA6304
:101EAC00DA6A42F01002DA62C6B91A46DB6A43F407
:101EBC000023D362124A136843F08063136001F06D
:101ECC00A9F904460E4B1B6813F0006F14D101F0F6
:101EDC00A1F9001B0228F5D90320ABE7012E05D090
:101EEC00074AD36A43F40013D362E3E7044AD36A84
:101EFC0043F48013D362DDE700209BE70120704799
:101F0C0000440258404B9B6A03F00303032B79D027
:101F1C0070B505460E463C4A136823F08053136097
:101F2C0001F078F90446384B1B6813F0005F06D0BB
:101F3C0001F070F9031B022BF5D9032070BD324B55
:101F4C009A6A22F07C72296842EA01529A626A68A3
:101F5C00013AC2F30802A9680139490289B20A435D
:101F6C00E9680139090401F4FE010A4329690139C0
:101F7C00090601F0FE410A431A64DA6A22F440624F
:101F8C0069690A43DA62DA6A22F40072A9690A43BF
:101F9C00DA62DA6A22F48072DA625A6C6FF3CF0278
:101FAC00E96942EAC1025A64DA6A42F48072DA627E
:101FBC00C6B91A46DB6A43F48003D362124A13682B
:101FCC0043F08053136001F025F904460E4B1B6857
:101FDC0013F0005F14D101F01DF9001B0228F5D994
:101FEC000320ABE7012E05D0074AD36A43F0807378
:101FFC00D362E3E7044AD36A43F40003D362DDE718
:10200C0000209BE70120704700440258F8B50446B5
:10201C00036813F0006F2FD0C36EB3F5001F25D0EB
:10202C0015D8E3B1B3F5801F0ED102210830FFF7AC
:10203C00E5FE054675BB8F4A136D23F44013E16E24
:10204C000B431365002619E00126354616E0B3F55F
:10205C00401F01D10025EEE7012635460EE0854AEA
:10206C00D36A43F40033D3620025E4E7022128301D
:10207C00FFF748FF0546DDE700263546236813F4D5
:10208C00807F29D0A36D042B22D8DFE803F0051341
:10209C001A0A0A002E46F1E7764AD36A43F4003353
:1020AC00D362C5B9734A136D23F00703A16D0B43BB
:1020BC00136511E0002104F10800FFF79FFE0546AF
:1020CC00EFE7002104F12800FFF71CFF0546E8E7C5
:1020DC000126354600E02E46236813F4007F28D0F5
:1020EC00E36D802B39D00CD8B3B1402B06D1002135
:1020FC0004F10800FFF782FE054612E00126354682
:10210C0017E0B3F5807F0CD0B3F5A07F09D0C02BBE
:10211C0007D0012635460CE0564AD36A43F4003307
:10212C00D3620DBB534A136D23F4E073E16D0B4383
:10213C001365236813F4806F35D0236EB3F5806F6D
:10214C005DD016D80BB3B3F5007F0FD1002104F18D
:10215C000800FFF753FE05461CE0002104F128009F
:10216C00FFF7D0FE0546DCE72E46E2E701263546B2
:10217C0019E0B3F5006F0DD0B3F5206F0AD0B3F5AD
:10218C00C06F07D0012635460DE03A4AD36A43F4B6
:10219C000033D362002D39D1364A136D23F46063BA
:1021AC00216E0B431365236813F0007F13D0E36C8F
:1021BC00202B35D02FD833B1102B29D12D4AD36AEF
:1021CC0043F40033D36295BB2A4AD36C23F030031B
:1021DC00E16C0B43D364236813F4805F4DD0636EC2
:1021EC00B3F5005F3FD027D87BB3B3F5805F20D128
:1021FC00002104F10800FFF701FE05462AE000214A
:10220C0004F12800FFF77EFE0546C3E72E46CAE719
:10221C0001263546DFE7302BD5D001263546DAE7E7
:10222C00022104F10800FFF7E9FD0546CBE72E4635
:10223C00D1E70126354620E0B3F5405F0AD0B3F56F
:10224C00804F07D00126354617E00A4AD36A43F47B
:10225C000033D36285B9074A136D23F4E043616EF2
:10226C000B43136509E0002104F12800FFF74AFE37
:10227C000546EFE7004402582E46236813F4005F2E
:10228C0017D0A36EB3F5003F50D043D843B1B3F58C
:10229C00803F3CD1012104F10800FFF7AFFD05465A
:1022AC00002D4AD1904A136D23F4E023A16E0B4309
:1022BC001365236813F4804F19D0D4F8B030B3F100
:1022CC00005F52D03ED843B1B3F1805F37D10121CA
:1022DC0004F10800FFF792FD0546002D4CD1824A0F
:1022EC00936D23F0E043D4F8B0100B43936523684F
:1022FC0013F4004F4FD0A36FB3F1805F3ED0B3F116
:10230C00005F53D0002B3ED00126354643E001261A
:10231C003546CEE7B3F5802FC2D0B3F5A02FBFD092
:10232C00B3F5403FBCD001263546C2E7012104F18C
:10233C002800FFF7E7FD0546B2E72E46B9E7012670
:10234C003546D4E7B3F1A04FC7D008D8B3F1405FFE
:10235C00C3D0B3F1804FC0D001263546C7E7B3F1E7
:10236C00C04FBAD001263546C1E7012104F128003F
:10237C00FFF7C8FD0546B0E72E46B8E75A4AD36AC0
:10238C0043F40033D362C5B9574A136D23F040535D
:10239C00A16F0B431365236813F0807F1CD0A36CD3
:1023AC00032B45D8DFE803F0100B3D10012104F19D
:1023BC000800FFF723FD0546E5E72E46EBE74A4A02
:1023CC00D36A43F40033D362ADBB474AD36C23F0DA
:1023DC000303A16C0B43D364236813F4800F2CD13B
:1023EC00236813F0010F00F0AA80D4F88430282B56
:1023FC0000F2A380DFE803F090A1A1A1A1A1A1A10B
:10240C008AA1A1A1A1A1A1A19AA1A1A1A1A1A1A1CE
:10241C0090A1A1A1A1A1A1A190A1A1A1A1A1A1A1C2
:10242C009000022104F10800FFF7E8FC0546CBE719
:10243C0001263546D0E72E46CEE72C4A136843F4E6
:10244C008073136000F0E6FE0746284B1B6813F4FC
:10245C00807F05D100F0DEFEC01B6428F5D9032572
:10246C00002D4FD1204B1B6FD4F8B420534013F4E4
:10247C00407F0CD01C4B1A6F22F44072196F41F440
:10248C0080311967196F21F4803119671A67D4F8F4
:10249C00B430B3F5807F16D0002D35D1D4F8B430DC
:1024AC0003F44072B2F5407F22D00F4A136923F433
:1024BC007C5313610C490B6FD4F8B420C2F30B029C
:1024CC0013430B678CE700F0A5FE0746064B1B6F0A
:1024DC0013F0020FE0D100F09DFEC01B41F28833D7
:1024EC009842F3D90325D7E7004402580048025814
:1024FC00B048026922F47C52AF4901EA131313432A
:10250C000361D7E72E466BE72E4669E7012104F1FC
:10251C000800FFF773FC0546F5B9A64A536D23F086
:10252C003803D4F884100B43536508E0012104F1FF
:10253C002800FFF7E7FC0546EEE701263546236841
:10254C0013F0020F19D0D4F88030052B2AD8DFE80D
:10255C0003F00B05220B0B0B2E46F0E7012104F1C7
:10256C000800FFF74BFC0546FDB9924A536D23F06A
:10257C000703D4F880100B435365236813F0040F42
:10258C0026D0D4F89C30052B00F2D680DFE803F07F
:10259C00150FCD151515012104F12800FFF7B2FC1C
:1025AC000546E1E701263546E7E72E46E5E701213A
:1025BC0004F10800FFF722FC0546002D40F0BF8017
:1025CC007C4A936D23F00703D4F89C100B4393655E
:1025DC00236813F0200F1DD0D4F89830B3F1005FAE
:1025EC0000F0C18000F2B0804BB1B3F1805F40F0DD
:1025FC00A880002104F10800FFF700FC0546002D1F
:10260C0040F0B8806B4A536D23F0E043D4F8981037
:10261C000B435365236813F0400F1DD0D4F8A4303E
:10262C00B3F5006F00F0BA8000F2A9804BB1B3F59E
:10263C00806F40F0A180002104F10800FFF7DEFB61
:10264C000546002D40F0B1805A4A936D23F4E053B7
:10265C00D4F8A4100B439365236813F0800F1DD09E
:10266C00D4F8A830B3F5804F00F0B78000F2A68004
:10267C004BB1B3F5005F40F09A80002104F10800E3
:10268C00FFF7BCFB0546002D40F0AE80494A936D28
:10269C0023F46043D4F8A8100B439365236813F01C
:1026AC00080F0DD0D4F88C30B3F5805F00F09E800D
:1026BC00404A536D23F44053D4F88C100B435365AC
:1026CC00236813F0100F0DD0D4F8A030B3F5807F31
:1026DC0000F09680374A936D23F44073D4F8A01021
:1026EC000B439365236813F4002F00F09E80D4F8FD
:1026FC00AC30B3F5803F00F08D80B3F5003F08D0CF
:10270C00002B40F08E80002104F10800FFF776FBCF
:10271C000546002D40F08880264A936D23F4403303
:10272C00D4F8AC100B4393657FE0012104F1280031
:10273C00FFF7E8FB054640E70126354648E72E46FD
:10274C0046E70126354665E7B3F1804F3FF457AFB6
:10275C00B3F1A04F3FF453AFB3F1405F3FF44FAF31
:10276C000126354656E7022104F12800FFF7CAFB83
:10277C00054644E72E464DE7012635466CE7B3F592
:10278C00805F3FF45EAFB3F5A05F3FF45AAFB3F593
:10279C00406F3FF456AF012635465DE7022104F148
:1027AC002800FFF7AFFB05464BE72E4654E7012602
:1027BC00354673E700440258CFFFFF00B3F5004FD6
:1027CC003FF461AFB3F5204F3FF45DAFB3F5C04FAD
:1027DC003FF459AF0126354660E7022104F1280089
:1027EC00FFF790FB05464EE72E4657E7022104F112
:1027FC002800FFF787FB00283FF45AAF012657E764
:10280C00022104F12800FFF77DFB00283FF462AFA2
:10281C0001265FE7022104F12800FFF773FB054650
:10282C0077E70126354600E02E46236813F4802F07
:10283C0024D0D4F89030B3F5001F14D0B3F5401F5A
:10284C0007D0B3F5801F15D1824AD36A43F4003305
:10285C00D36295B97F4A536D23F44013D4F890108A
:10286C000B4353650AE0012104F12800FFF74AFBF2
:10287C000546EEE70126354600E02E46236813F4A4
:10288C00803F06D0236DD3B1B3F5803F25D0012610
:10289C003546236813F0005F28D1236813F4003FFA
:1028AC003FD0D4F88830B3F5807F2BD027D9B3F53F
:1028BC00007F2CD0B3F5407F29D0012631E0654A4A
:1028CC00D36A43F40033D36275B9624AD36C23F4F0
:1028DC008033216D0B43D364DBE7022104F1080044
:1028EC00FFF78CFA0546EFE72E46D2E7022104F1FA
:1028FC002800FFF707FB0028CFD00126CDE733B126
:10290C0001260EE0534AD36A43F40033D362002D00
:10291C0068D1504A536D23F44073D4F888100B439C
:10292C005365236813F4801F06D04A4A136D23F0B5
:10293C000043E16F0B431365236813F4001F06D0AB
:10294C00444A136D23F08073216F0B431365236886
:10295C0013F4006F06D03F4A936D23F00063616F50
:10296C000B439365236813F0804F09D0394B1A69D8
:10297C0022F400421A611A69D4F8B8100A431A6199
:10298C002368002B06DA334AD36C23F04053616D75
:10299C000B43D364236813F4000F07D02D4A536DF7
:1029AC0023F44003D4F894100B435365636813F07D
:1029BC00010F19D1636813F0020F1ED1636813F075
:1029CC00040F23D1636813F0080F28D1636813F048
:1029DC00100F2DD1636813F0200F32D106B10126F0
:1029EC003046F8BD2E469CE7002104F10800FFF7A5
:1029FC0005FA0028DED00646DCE7012104F10800C8
:102A0C00FFF7FCF90028D9D00646D7E7022104F1DC
:102A1C000800FFF7F3F90028D4D00646D2E70021CE
:102A2C0004F12800FFF76EFA0028CFD00646CDE758
:102A3C00012104F12800FFF765FA0028CAD00646E8
:102A4C00C8E7022104F12800FFF75CFA0028C5D082
:102A5C000126C5E70044025808B5FFF789F9054B74
:102A6C001B6AC3F30213044AD35C03F01F03D84060
:102A7C0008BD00BF004402588C36000810B4794BD6
:102A8C009A6A9C6AC4F3053CD96AC1F30011DB6BEA
:102A9C00C3F3CC0301FB03F314F47C3F00F0DD80A3
:102AAC0002F0030207EE903AF8EE677A012A4BD057
:102ABC00022A00F09880002A40F0B280694B1B6813
:102ACC0013F0200F23D067490A68C2F3C102664B8A
:102ADC00D34007EE103AF8EE476A07EE10CAB8EE8C
:102AEC00476A86EE867A8B6BC3F3080306EE903A40
:102AFC00F8EE666A9FED5D6A67EE867A76EEA77AE7
:102B0C00F7EE006A77EEA67A27EE277A38E007EE22
:102B1C0010CAF8EE476A9FED566A86EE267A514B3C
:102B2C009B6BC3F3080306EE903AF8EE666A9FEDD2
:102B3C004F6A67EE867A76EEA77AF7EE006A77EE42
:102B4C00A67A27EE277A1BE007EE10CAF8EE476A42
:102B5C009FED486A86EE267A424B9B6BC3F30803C3
:102B6C0006EE903AF8EE666A9FED406A67EE867A5A
:102B7C0076EEA77AF7EE006A77EEA67A27EE277A3A
:102B8C00384A936BC3F3462307EE903AF8EE677A14
:102B9C00F7EE006A77EEA67A87EE276ABCEEC66A75
:102BAC0080ED006A936BC3F3064307EE903AF8EEA0
:102BBC00677A77EEA67A87EE276ABCEEC66A80ED56
:102BCC00016A936BC3F3066307EE903AF8EE677AEB
:102BDC0077EEA67AC7EE276AFCEEE66AC0ED026ACB
:102BEC005DF8044B704707EE10CAF8EE476A9FED8C
:102BFC00226A86EE267A1B4B9B6BC3F3080306EE08
:102C0C00903AF8EE666A9FED196A67EE867A76EE70
:102C1C00A77AF7EE006A77EEA67A27EE277AAFE767
:102C2C0007EE10CAF8EE476A9FED126A86EE267A16
:102C3C000C4B9B6BC3F3080306EE903AF8EE666AF6
:102C4C009FED0A6A67EE867A76EEA77AF7EE006A4F
:102C5C0077EEA67A27EE277A92E70023036043608B
:102C6C008360BDE7004402580090D0030000003997
:102C7C000024744C0024744A0024F44A10B4794B98
:102C8C009A6A9C6AC4F3055CD96AC1F300215B6C37
:102C9C00C3F3CC0301FB03F314F07C7F00F0DD8065
:102CAC0002F0030207EE903AF8EE677A012A4BD055
:102CBC00022A00F09880002A40F0B280694B1B6811
:102CCC0013F0200F23D067490A68C2F3C102664B88
:102CDC00D34007EE103AF8EE476A07EE10CAB8EE8A
:102CEC00476A86EE867A0B6CC3F3080306EE903ABD
:102CFC00F8EE666A9FED5D6A67EE867A76EEA77AE5
:102D0C00F7EE006A77EEA67A27EE277A38E007EE20
:102D1C0010CAF8EE476A9FED566A86EE267A514B3A
:102D2C001B6CC3F3080306EE903AF8EE666A9FED4F
:102D3C004F6A67EE867A76EEA77AF7EE006A77EE40
:102D4C00A67A27EE277A1BE007EE10CAF8EE476A40
:102D5C009FED486A86EE267A424B1B6CC3F3080340
:102D6C0006EE903AF8EE666A9FED406A67EE867A58
:102D7C0076EEA77AF7EE006A77EEA67A27EE277A38
:102D8C00384A136CC3F3462307EE903AF8EE677A91
:102D9C00F7EE006A77EEA67A87EE276ABCEEC66A73
:102DAC0080ED006A136CC3F3064307EE903AF8EE1D
:102DBC00677A77EEA67A87EE276ABCEEC66A80ED54
:102DCC00016A136CC3F3066307EE903AF8EE677A68
:102DDC0077EEA67AC7EE276AFCEEE66AC0ED026AC9
:102DEC005DF8044B704707EE10CAF8EE476A9FED8A
:102DFC00226A86EE267A1B4B1B6CC3F3080306EE85
:102E0C00903AF8EE666A9FED196A67EE867A76EE6E
:102E1C00A77AF7EE006A77EEA67A27EE277AAFE765
:102E2C0007EE10CAF8EE476A9FED126A86EE267A14
:102E3C000C4B1B6CC3F3080306EE903AF8EE666A73
:102E4C009FED0A6A67EE867A76EEA77AF7EE006A4D
:102E5C0077EEA67A27EE277A92E700230360436089
:102E6C008360BDE7004402580090D0030000003995
:102E7C000024744C0024744A0024F44AF0B583B046
:102E8C0000236BE085685E000324B44025EA04054A
:102E9C00CC68B4402C438460456825EA0C054C682A
:102EAC00C4F300149C402C43446069E0DD080835F1
:102EBC0050F8254003F0070C4FEA8C0C4FF00F0E26
:102ECC000EFA0CFE24EA0E0E0C6904FA0CF444EA19
:102EDC000E0440F825406BE0092400E0002404FABD
:102EEC000EF42C430CF1020C694D45F82C404FF0BC
:102EFC00B0442568D44325EA02064F6817F4801FB6
:102F0C0001D042EA05064FF0B0452E606D6804EA28
:102F1C0005064F6817F4001F01D042EA05064FF072
:102F2C00B0456E60D5F8845004EA05064F6817F476
:102F3C00003F01D042EA05064FF0B045C5F8846069
:102F4C00D5F880502C404E6816F4803F01D042EAF0
:102F5C0005044FF0B042C2F8804001330A6832FADF
:102F6C0003F400F092804FF0010C0CFA03FC1CEA05
:102F7C000202F2D04C6804F00304013C012C81D90C
:102F8C004C6804F00304032C0CD0C4685D004FF0B3
:102F9C00030C0CFA05FC24EA0C0C8C68AC4044EADB
:102FAC000C04C4604C6804F00304022C3FF47EAFA4
:102FBC0004684FEA430E4FF0030C0CFA0EFC24EAA3
:102FCC000C0C4C6804F0030404FA0EF444EA0C04F0
:102FDC0004604C6814F4403FBFD02E4CD4F85451CC
:102FEC0045F00205C4F85451D4F8544104F00204DD
:102FFC000194019C4FEA930C0CF10205244C54F8FB
:10300C00255003F0030E4FEA8E0E0F2404FA0EF433
:10301C0025EA0405204CA0423FF460AF04F580641F
:10302C00A04222D004F58064A04220D004F5806434
:10303C00A0421ED004F58064A0421CD004F580642C
:10304C00A0421AD004F58064A04218D004F5806424
:10305C00A04216D004F58064A04214D004F580641C
:10306C00A0423FF439AF0A2439E7012437E70224A0
:10307C0035E7032433E7042431E705242FE706243E
:10308C002DE707242BE7082429E703B0F0BD00BF88
:10309C000004005800440258000002580AB1816133
:1030AC007047090481617047436901EA030221EA10
:1030BC00030141EA024181617047000038B50446C2
:1030CC00224BDB6803F00703062B07D01F4BDB6892
:1030DC0003F03F03834236D0012038BD1B4AD3682E
:1030EC0023F03F030343D36000F094F80546174BDD
:1030FC005B6813F4005F07D100F08CF8431BB3F549
:10310C007A7FF4D90120E8E72E2C18BF1E2C08D0AA
:10311C002D2C14BF002301231D2C02D00BB9002031
:10312C00DBE700F077F80446084BDB6813F4803FCC
:10313C0007D100F06FF8001BB0F57A7FF4D90120AD
:10314C00CBE70020C9E70020C7E700BF00480258C2
:10315C00104B1B780BB90120704710B504464FF487
:10316C007A70B0FBF3F30C4A1068B0FBF3F0FDF788
:10317C000FFB68B90F2C01D901200AE0002221466F
:10318C004FF0FF30FDF7F4FA044B1C60002000E018
:10319C00012010BD000000200C00002004000020C5
:1031AC0010B50320FDF7D2FAFEF79CFB0F498B6993
:1031BC00C3F303230E4AD35C03F01F03D8408B697F
:1031CC0003F00F03D35C03F01F0320FA03F3094A47
:1031DC001360094B18600020FFF7BAFF10B10124EF
:1031EC00204610BD0446FDF721FAF9E700440258C9
:1031FC008C360008080000200C000020034B1B78C4
:10320C00034A11680B441360704700BF0000002094
:10321C00C0000020014B1868704700BFC0000020A0
:10322C0038B50446FFF7F6FF0546B4F1FF3F02D070
:10323C00044B1B781C44FFF7EDFF401BA042FAD354
:10324C0038BD00BF00000020224AD2F8883043F479
:10325C007003C2F88830204B1B6803F00F03022B5D
:10326C0006D81D4A136823F00F0343F003031360C1
:10327C001A4B1A6842F001021A6000221A6119688E
:10328C00174A0A401A60144B1B6813F00C0F06D037
:10329C00114A136823F00F0343F0030313600F4B21
:1032AC0000229A61DA611A620E4999620E49D9625A
:1032BC000E4919635A639963DA6319645A6419687D
:1032CC0021F4802119601A66094B43F2D2021A606C
:1032DC00704700BF00ED00E000200052004402588F
:1032EC007FEDF6EA000202020000FF0180020101FC
:1032FC0000400052DFF834D0FFF7A6FF0C480D4910
:10330C000D4A002302E0D458C4500433C4188C4234
:10331C00F9D30A4A0A4C002301E013600432A2429A
:10332C00FBD300F019F8FDF761F97047000002209B
:10333C000000002010000020AC3600081000002017
:10334C00C4000020FEE702440346934200D17047BC
:10335C0003F8011BF9E7000070B50D4D0D4C641B13
:10336C00A4100026A64209D10B4D0C4C00F068F9B4
:10337C00641BA4100026A64205D170BD55F8043B71
:10338C0098470136EEE755F8043B98470136F2E7CB
:10339C00A4360008A4360008A4360008A836000895
:1033AC002DE9F04786468C460846089E154674461D
:1033BC001946002B40F0C2808542B2FA82F245D900
:1033CC004AB1C2F1200300FA02FC2EFA03F3954035
:1033DC0043EA0C0C94404FEA154EA8B2BCFBFEF825
:1033EC00230C0EFB18CC08FB00F943EA0C4399455F
:1033FC0028D9EB1808F1FF3704D2994502D9A8F166
:10340C0002072B44A3EB0903A4B2B3FBFEFC0EFB97
:10341C001C330CFB00F044EA0344A04214D92C19D1
:10342C000CF1FF3304D2A04202D9ACF102032C44BC
:10343C00241A43EA07401EB1D44000233460736061
:10344C00BDE8F0874746DDE76346F1E792BB431BD7
:10345C0001214FEA154EAFB2B3FBFEFC200C0EFB64
:10346C001C330CFB07F840EA0343984562D9EB1870
:10347C000CF1FF3004D2984502D9ACF102002B4478
:10348C00A3EB0803A4B2B3FBFEFC0EFB1C330CFB3A
:10349C0007F744EA0344A7424ED92C190CF1FF3329
:1034AC0004D2A74202D9ACF102032C44E41B43EA38
:1034BC000040C0E7C2F1200320FA03F19540904090
:1034CC002EFA03F303434FEA154EAFB2B1FBFEFCE9
:1034DC000EFB1C10190C0CFB07F841EA0041884547
:1034EC0004FA02F422D969180CF1FF3004D2884591
:1034FC0002D9ACF102002944A1EB08019BB2B1FB4B
:10350C00FEFC0EFB1C110CFB07F743EA01439F4228
:10351C000ED9EB180CF1FF3104D29F4202D9ACF159
:10352C0002012B44DB1B41EA004192E76046E3E7D2
:10353C006146F7E76046A3E76346B7E7834206D9DF
:10354C0016B9002108467BE7C6E900E0F9E7B3FAB3
:10355C0083F78FB9834201D3724508D8BEEB0204BE
:10356C0060EB030301209C461EB9002168E7384636
:10357C00FAE7C6E9004CF8E7C7F1200CBB4022FA89
:10358C000CF41C432EFA0CF120FA0CF3B840014356
:10359C004FEA14490EFA07F5B3FBF9F81FFA84FE4B
:1035AC0009FB18300B0C08FB0EFA43EA00439A4552
:1035BC0002FA07F240D9E31808F1FF3004D29A4519
:1035CC0002D9A8F102002344A3EB0A0389B2B3FB8E
:1035DC00F9F809FB183308FB0EFE41EA03418E454E
:1035EC002CD9611808F1FF3304D28E4502D9A8F109
:1035FC000203214443EA0040A0FB0298A1EB0E0118
:10360C004145CE46434602D306D14D4504D2B9EBD3
:10361C00020E68EB04030138002EA6D0B5EB0E02A7
:10362C0061EB030101FA0CFC22FA07F34CEA0303E9
:10363C00F940C6E9003198E74046C5E74346D9E76B
:10364C00F8B500BFF8BC08BC9E467047F8B500BF83
:08365C00F8BC08BC9E46704753
:10366400010002000400060008000A000C0010001B
:103674002000400080000001080402040801010148
:10368400010101030701000000000000010203041E
:08369400010203040607080906
:08369C0010FDFF7F010000009A
:0436A4000503000812
:0436A800E102000833
:1036AC0001000000100000000090D0030090D00337
:0400000508003301BB
:00000001FF
